:020000040000FA
:0400000080312A28F9
:08000800803127280830A9000F
:100010000310A50D0310A30D031C10282408A50729
:10002000A90B082808000830A900A4010310A60D98
:100030000310A30DA40D2408250203192128031879
:1000400024282508A4022614A90B162808008431A8
:1000500020006C2C21000E108E100E118E110E122D
:100060008E168C158C100C1084314B2C22008C12A7
:100070000C1221008C160C164C202100A6013814FD
:100080008031EC202100A60A093026028031031DB0
:100090003F284C2080316C28E42021000C16803150
:1000A000E42021008C168031E4202100B30180314E
:1000B00020008C1E5C286428E4202100B30A6430F0
:1000C00033028031031D572821000C12E420210047
:1000D0008C128031E4284C28E42021000C1280315D
:1000E000E42021008C128031E42021008C16803124
:1000F000E4202100B301803120008C1E8028882854
:10010000E4202100B30A643033028031031D7B28D0
:1001100021000C16E4282100B300B4013810B31BF1
:100120003814EC2003102100B30DB40A0830340257
:100130008031031D8E28E42021000C168031E4203C
:1001400021008C168031E4202100B501803120008F
:100150008C1EAB28B328E4202100B50A6430350298
:100160008031031DA62820000C1EB928210036105E
:10017000BB2821003614E42021008C128031E420B9
:10018000803121003618C7282000201008002000E8
:1001900020140800B3010310B20D813109212100A0
:1001A000321036183214B30A083033028031031D7E
:1001B000CB28341CDF283810EC208031E12838149B
:1001C000EC2021003208080020000C30A000803113
:1001D000A00BE828000008003818F0280C12F128BD
:1001E0000C16E42021008C16B701803120008C1EF3
:1001F000FB2881310329E4202100B70A643037024B
:100200008031031DF5288031E42021008C128031DB
:10021000E4280C168031E42021008C16B5018131D0
:1002200020008C1E14291D298031E4202100B50AEC
:10023000643035028131031D0F298031E420813182
:1002400020000C1A262921003610282921003614F6
:100250008031E42021008C128031E4288031362066
:1002600080314C20D03080318B208131200020180B
:100270003C29210025103E29210025140E30803113
:100280008B208131200020184829210025114A297E
:1002900021002515251D2510403080318B2081310E
:1002A0002000201856292100251258292100251642
:1002B000251E251080316C28A50080314C20D030BF
:1002C00080318B20813120002018692921003010D5
:1002D0006B2921003014003080318B2081312000C7
:1002E0002018752921003011772921003015301D83
:1002F00030100A302000A500210027082000A300AC
:1003000080311320200026082100A900290EF03991
:10031000AA00200024082100AB002A082B07A8000F
:1003200080318B2081312000201899292100301242
:100330009B2921003016301E30100A302000A50005
:10034000210026082000A300803113202000260869
:100350002100A900290EF039AA002000240821005C
:10036000AB002A082B07A80080318B2081312000A8
:100370002018BD2921003013BF2921003017301F5C
:1003800030100A302000A500210025082000A3001D
:1003900080311320200026082100A900290EF03901
:1003A000AA00200024082100AB002A082B07AC007B
:1003B00040302C04A80080318B208131200020188F
:1003C000E42921003110E62921003114311C3010BC
:1003D00080316C20813121003018F129200020105B
:1003E000080020002014080080314C20D0308031DB
:1003F0008B20823120002018002A21003010022A90
:1004000021003014003080318B20823120002018F0
:100410000C2A210030110E2A21003015301D301019
:1004200080316B20D13080318B2082312000201828
:100430001C2A210030121E2A21003016301E3010D6
:1004400034148031CA202100A800280E0F39A900D9
:100450002000A3000A30A4008031062020002508D7
:100460002100AA000F302805AB002A082B07A7009F
:1004700034148031CA202100A800280E0F39A900A9
:100480002000A3000A30A4008031062020002508A7
:100490002100AA000F302805AB002A082B07A60070
:1004A00034108031CA202100A8001F302805A9007F
:1004B000290E0F39AA002000A3000A30A4008031C1
:1004C0000620200025082100AB000F302805AC00D5
:1004D0002B082C07A50080316C20823121003018B8
:1004E000742A20002010762A2000201421002508DC
:1004F000080022008E118E109D0124009512F0300C
:1005000015050138950015121417F701F801F901C6
:10051000FA012000911122008E1524009516210069
:1005200091150B178B1708002000911DDC2A9111E3
:100530007A08031D9F2A24009101FA0A09007A0310
:10054000031DA62A24009101FA0A090002307A024A
:10055000031DAE2A24009101FA0A090003307A0231
:10056000031DB92A22008E14FA0A8E10240091016C
:10057000090004307A02031DC22A79082400910080
:10058000FA0A090005307A02031DCB2A78082400F4
:100590009100FA0A090006307A02031DD42A77086E
:1005A00024009100FA0A090007307A02031DDC2AB0
:1005B00022008E14FA018E100900313020009800BC
:1005C00083309600FC309700FB01111021001114BC
:1005D0000B178B170800B500F701B6010310F70CD5
:1005E000383084008501350884070003371003196B
:1005F0003714383084008501350884070330000241
:10060000B7100319B7143711371CB71837158331D2
:100610003719F717B50AB60A083036028231031DBA
:10062000EE2A0800B200F801B3010310F80C3830CC
:100630008400850132088407023000023410031957
:1006400034143830840085013208840703300002F6
:10065000B4100319B4143411341CB41834153419FB
:10066000F817B20AB30A08303302031D152B08002D
:1006700082312000111C942A111022008C14833026
:1006800020009600FC3097007B088331031D512B1E
:10069000F80100308231EB220130F900FB0A84318D
:1006A000452C7B03031D5C2B08308231EB2202308A
:1006B000F900FB0A8431452C02307B02031D682BB4
:1006C00010308231EB220430F900FB0A8431452CD2
:1006D00003307B02031D742B18308231EB2208306B
:1006E000F900FB0A8431452C04307B02031D802B6A
:1006F00020308231EB221030F900FB0A8431452C86
:1007000005307B02031D8C2B28308231EB222030F8
:10071000F900FB0A8431452C06307B02031D982B1F
:1007200030308231EB224030F900FB0A8431452C15
:1007300007307B02031DC62BF7013830AD00B10135
:100740000310F70C3830840085012D08840700035E
:100750002F1003192F143830840085012D088407C9
:1007600003300002AF100319AF142F112F1CAF1864
:100770002F152F19F715AD0AB10A04303102031DE8
:10078000A02B8030F900FB0A8431452C08307B0215
:10079000031DD22BF701003012230130F900FB0AB0
:1007A0008431452C09307B02031DDD2B08301223D8
:1007B0000230F900FB0A8431452C0A307B02031D0C
:1007C000E82B103012230430F900FB0A8431452C49
:1007D0000B307B02031DF32B183012230830F90075
:1007E000FB0A8431452C0C307B028431031D002C24
:1007F0002030833112231030F900FB0A8431452C5C
:100800000D307B02031D0C2C283083311223203045
:10081000F900FB0A8431452C0E307B02031D182C95
:100820003030833112234030F900FB0A8431452CEB
:100830000F307B02031D452CF8013830AD00B101AB
:100840000310F80C3830840085012D08840702302D
:1008500000023012031930163830840085012D084B
:10086000840703300002B0120319B0163013301E93
:10087000B01A3017301BF815AD0AB10A0430310236
:10088000031D202C8030F900FB012000911522006F
:100890008C108231942A8730190570389900FC3009
:1008A00099053F3024008C008E0121009513230010
:1008B0008C018E0121009D019E01043022009100D7
:1008C000920104309300940186312D2E2100A11055
:1008D0008B100B168B17080083318B1C382B8B1059
:1008E0002100A114382B2100A60138308400850195
:1008F000260884078001A60A3C302602031D752CB9
:1009000008002100A5010C307402031D892CA601EA
:10091000942C74082000A3000530A4008031062028
:10092000200025082100A60026087502843103193D
:10093000BF2C0318BF2C750AB000B201A82C3830A8
:10094000840085012508840702308000A50AB20AC8
:1009500032083002031D9F2C75082602B300B40133
:10096000BA2C3830840085012508840701308000C6
:10097000A50AB40A34083302031DB12CFA2C7508F9
:1009800026020319E92C0318E92C260AB000B2014B
:10099000D22C38308400850125088407013080007E
:1009A000A50AB20A32083002031DC92C26087502B6
:1009B000B300B401E42C3830840085012508840795
:1009C00002308000A50AB40A34083302031DDB2C70
:1009D000FA2C260AB000B201F62C383084008501CA
:1009E0002508840703308000A50AB20A32083002C5
:1009F000031DED2C2508A7002709A8003D30A807F6
:100A0000A90185310B2D3830840085012508840724
:100A10008001A50AA90A29082802031D032DA501A2
:100A2000AD013830840085012508840702300002BA
:100A3000AF100319AF1438308400850125088407EE
:100A4000033000022F1103192F15AF11AF1C2F19FE
:100A5000AF15AF1D332D383084008501250884077C
:100A6000033080003A2D3830840085012508840742
:100A7000013080000530A507AD0A0C302D02031DA2
:100A8000112DA1195A2D383084008501760884076C
:100A900003300002031D532D383084008501760891
:100AA00084078001080038308400850176088407B7
:100AB00003308000080020006030A000F830A10062
:100AC0006E30A2008531A20B632D8531A10B602D04
:100AD0008531A00B5E2D20000930A0008531A00BD0
:100AE0006F2D080020000430A000CA30A100613042
:100AF000A2008531A20B7A2D8531A10B772D85318E
:100B0000A00B752D00000000080020007730A00029
:100B10008F30A1002D30A2008531A20B8D2D8531A3
:100B2000A10B8A2D8531A00B882D20000130A0005B
:100B30008531A00B992D080022000E1684317324F4
:100B40002100A50138308400850125088407013083
:100B50008000853172252100A50A3C3025028531AF
:100B6000031DA22D5B25843173242100A50138309B
:100B700084008501250884070230800085317225B4
:100B80002100A50A3C3025028531031DB72D5B25C8
:100B9000843173242100A5013830840085012508A3
:100BA000840703308000853172252100A50A3C307E
:100BB00025028531031DCC2D5B2584317324210052
:100BC000A5013830840085012508840701308000A4
:100BD000853185253830840085012100250884076A
:100BE0008001A50A3C3025028531031DE12D8431A9
:100BF00073242100A501383084008501250884076D
:100C0000023080008531852538308400850121003F
:100C1000250884078001A50A3C3025028531031D83
:100C2000FB2D843173242100A50138308400850117
:100C300025088407033080008531852538308400FD
:100C400085012100250884078001A50A3C30250282
:100C50008631031D152E85319E2D20006930A000A0
:100C60008D30A1001030A2008631A20B352E8631C6
:100C7000A10B322E8631A00B302E000000000000A8
:100C800022000E1684317324823179228231DD22D2
:100C900081312E218431662422000E12210021117F
:100CA000FC01A111863120008C1D592E210021123A
:100CB0005B2E2100211620008E1E612E2100A11224
:100CC000632E2100A1162117211AA11E2113211F15
:100CD000932E20006930A0008D30A1001030A200BA
:100CE0008631A20B712E8631A10B6E2E8631A00BA0
:100CF0006C2E0000000000008C1D812E2100A1132D
:100D0000832E2100A11720008E1E892E2100221083
:100D10008B2E21002214A214A11B221CA210A21CA3
:100D2000932E85319C258131F4212100A00086314C
:100D3000200020189E2E21002211A02E2100221515
:100D40002608FE002708FD00221DAD2E2008F40015
:100D50007E08F5007D08F600B32E0130F400F501A1
:100D6000F60122000E1622000C1487312100A11C6E
:100D7000012FA1108631211DBF2E2111C02E21155A
:100D80007C08031DE12EA11DE22E7508A600760841
:100D9000A700740881315C21863120002018D32EF1
:100DA0002100A212D52E2100A216A21EDC2E2200A6
:100DB0000E122100A111E22E0130F400F501F6011E
:100DC000E22EFC038731A119012F8131F42121008A
:100DD000A000863120002018F02E2100A213F22E50
:100DE0002100A2172608FE002708FD008631A21F59
:100DF000FF2E2008F4007E08F5007D08F6008431FF
:100E00008124873120008C1D082F210023100A2FF8
:100E10002100231420008E1E102F2100A310122F5A
:100E20002100A3142311231CA3182315231D652FB0
:100E30000530FC0020000E30A000CF30A1002C3087
:100E4000A2008731A20B222F8731A10B1F2F8731E0
:100E5000A00B1D2F00000000000000002100211C3D
:100E6000652F211020008C1D382F2100A3113A2F4F
:100E70002100A31520008E1E402F21002312422F97
:100E800021002316A316A319231EA312A31E4C2F61
:100E9000A11522000E16652FA11D652FF601200059
:100EA0008C195A2F0C307402031D592F0130F40095
:100EB0005A2FF40A8E1A632F3B307502031D622FDE
:100EC000F501632FF50A8431812421002411873133
:100ED00020008C198E1E6E2F21002415210024194C
:100EE0002114A1197A2F2119782F22000E127A2F9E
:0C0EF00022000E1622000C108631B32EDA
:020000040001F9
:02000E00840963
:02001000FF1FD0
:00000001FF
